:030000000201E416
:0C01E400787FE4F6D8FD75816002022BE4
:07000300AE071FEE70FA22A8
:1006C900AD07AF051DEF60077F1F12000380F322FE
:1003530020402100000000000000001E667C0032E7
:10036300666600303C66183018660C303C66063210
:100373006666F31E667C060000600C0000601800D1
:1003830000600055555555AAAAAAAA55555555AA10
:09039300AAAAAA01170001180032
:03062E00F8E6FFEC
:10063100D293C2917E08C292EF30E704D294800235
:0C064100C294EF25E0FFD292DEECD291D3
:01064D00228A
:1006B5005389F0438901758CFF758AF0D2A9D28CD4
:0406C5007519012280
:03000B000202707E
:0D027000C0E0C0D075D000C000C006C007BF
:10027D00758CFF758AF00517E517B51902D290E553
:10028D0017C3940A404B7517000518E518B41003F1
:10029D00751800D290E51825E025E0242112062ED0
:1002AD00E51825E025E0242212062EE51825E02587
:1002BD00E02423F8E6FF120631E51825E025E024B9
:1002CD0024F8E6FF120631E5A054F04518F5A0C25A
:0102DD009090
:0B02DE00D007D006D000D0D0D0E03216
:10059C00EF131313541FFEED25E025E024212EF953
:1005AC00EF5407FF7480A807088002C313D8FC47D8
:0605BC00F77F0A020003B4
:10057500EF131313541FFEED25E025E024212EF97A
:10058500EF5407FF7480A807088002C313D8FCF452
:0705950057F77F0A02000383
:1005C200EF131313541FFEED25E025E024212EF92D
:1005D200EF5407FF7480A807088002C313D8FC6792
:0605E200F77F0A0200038E
:1002E9007F3F1F0F070301FFFF80C0E0F0F8FCFE0E
:1002F900040E0000080C08000E040000040C0400A1
:10030900080E00000C0808000E02000004040C008E
:10031900020E000008080C000E0800000C0404007E
:100329000C060000040C0800060C0000080C040070
:100339000F000000080808080C0C0000001020300D
:0A03490038404804040402020201D7
:06039C000116010108003A
:1005E800E511540F9003459324F9F582E43402F59C
:1005F80083AF11EFC4540F75F0041206D9AF82858A
:0506080083128F132294
:05000E00F5111205E8E8
:10001300E514131313541FF51BE5145407FFE4F5FC
:100023001CEFD394045032E513251CF582E43512FA
:10003300F583E493FEC374049FFDEEA805088002D4
:10004300C333D8FCFEE51C25E02409F8A606E51C0D
:1000530025E0240AF8E4F6804DE513251CF582E437
:100063003512F583E493FEEF24FCFDEEA80508802A
:1000730002C313D8FCFEE51C25E02409F8A606E517
:1000830013251CF582E43512F583E493FEC3740C47
:100093009FFDEEA805088002C333D8FCFEE51C25AE
:1000A300E0240AF8A606051CE51C640460030200AC
:1000B30024E4F51CE515251CFE25E025E024212577
:1000C3001BF9E51C25E02409F8E65760037F0022AD
:1000D300EE25E025E02422251BF9E51C25E0240A72
:1000E300F8E65760037F0022051CE51CB404C5E451
:1000F300F51CE515251CFF25E025E02421251BF92A
:10010300E51C25E02409F8E647F7EF25E025E02480
:1001130022251BF9E51C25E0240AF8E647F7051C10
:07012300E51CB404CD7F01CF
:01012A0022B2
:10053C00E514131313541FFFE4FEE5152E25E025D7
:10054C00E024212FF9EE25E02409F8E6F457F7E52D
:10055C00152E25E025E024222FF9EE25E0240AF8BB
:08056C00E6F457F70EBE04D2BD
:010574002264
:1003A900EFD39516404DEF25E025E02422F8900281
:1003B900E9E493FEF456F6EF25E025E02422F9EF6F
:1003C90025E025E0241EF8EE5647F7EF25E025E065
:1003D9002423F89002F8E493FEF456F6EF25E0257D
:1003E900E02423F9EF25E025E0241FF8EE5647F72E
:0403F9001F80AD2292
:1006890012053C1514120013EF700805141200131B
:060699007F00227F012218
:10069F0012053C0514120013EF7008151412001305
:0606AF007F00227F012202
:10064E0012053C0515120013EF701215151200134A
:10065E00E515C3951650038515167F00227F0122DE
:1003FD00AF11EFC4540FFC12053CAF11EFC4540FF5
:10040D00FEEF540FFFEE04540FC454F04FF511548A
:10041D000F90034C93FFAE11EEC4540FC39F4006D3
:10042D00E511540FF5111205E8120013EF7012ECDF
:10043D00540FC454F0FFE511540F4F12000E7F00FE
:03044D00227F010A
:010450002289
:1004A500E4F51C751B0EE51BD395154041D201E5FE
:1004B5001B25E025E02422F89002E9E493FF566F1E
:1004C5006002C201E51B25E025E02423F89002F82F
:1004D500E493FF566F6002C20130010E051CAF1B8D
:1004E5001203A9051B7F06120003151B80B8AF1C5C
:0104F50022E4
:10060D0075140F751501AF080508EF75F00784E532
:10061D00F0540FFFE51154F04FF511540F12000E69
:01062D0022AA
:10012B00E4F51C751B08AD1CAF1B1205C2051BE5C6
:10013B001BD3941740F0051CE51CD3940F40E47FB0
:10014B00141206C9E4F51C751B08AD1CAF1B120578
:10015B009C051BE51BD3941740F0051CE51CD394A1
:10016B000F40E4E4F51C751B08AD1CAF1B120575A5
:10017B00051BE51BD3941740F0051CE51CD3940F0E
:10018B0040E47F141206C97F141206C9751B17E4CD
:10019B00FDAF1B12059C151BE51BD3940850F0E417
:1001AB00F51CAD1C7F0812059C051CE51CD3940F98
:1001BB0040F0751B087D0FAF1B12059C051BE51B43
:1001CB00D3941740F0751C0FAD1C7F1712059C15AF
:0801DB001CE51CD3940050F058
:0101E30022F9
:0603A200021D0000C10075
:10066E00D280D281D2822080037F01222081037F1B
:0B067E0002222082037F03227F002263
:1004F600E4F51DF51E12066E8F1BE51B7002FF222A
:100506007F021206C9051EE51E7002051D12066E43
:10051600EF7005C200AF1B2230000BE51E640445D8
:100526001D7003AF1B22D3E51E9419E51D940040F0
:05053600CFD200AF1B55
:01053B00229D
:100451001206B5D2AF1204F6EF60FA12012B1206A2
:100461000DEF70081204F6EF70F180F8751A05AF00
:100471001A151AEF60237F031206C91204F6EF243E
:10048100FE600C14600E240270E512068980E012F1
:1004910003FD80DB12069F80D612064EEF70CD124F
:0404A10004A580BA74
:1001F000020451E493A3F8E493A34003F68001F2D0
:1002000008DFF48029E493A3F85407240CC8C3330F
:10021000C4540F4420C8834004F456800146F6DFDE
:10022000E4800B0102040810204080900353E47E18
:10023000019360BCA3FF543F30E509541FFEE493D3
:10024000A360010ECF54C025E060A840B8E493A39A
:10025000FAE493A3F8E493A3C8C582C8CAC583CAC5
:10026000F0A3C8C582C8CAC583CADFE9DEE780BE7D
:0103A8000054
:0C06D900A42582F582E5F03583F583222C
:00000001FF
